{
  "transactions": [
    {
      "hash": "0x8a6a7a73cbf63536efb246b07f56c4d8b92b90d809b270790e2e7ebd2dd10992",
      "transactionType": "CALL",
      "contractName": "LinkToken",
      "contractAddress": "0x779877a7b0d9e8603169ddbd7836e478b4624789",
      "function": "transferAndCall(address,uint256,bytes)",
      "arguments": [
        "0x02667f44a6a44E4BDddCF80e724512Ad3426B17d",
        "3000000000000000000",
        "0x1e3ae70bf675b2ba6dddee30004149f61228f0e01d76125ab9d439e1bb41d015"
      ],
      "transaction": {
        "from": "0x96fcc8e900e7909e0df73ae8239c3a8c7f601562",
        "to": "0x779877a7b0d9e8603169ddbd7836e478b4624789",
        "gas": "0x13a79",
        "value": "0x0",
        "input": "0x4000aea000000000000000000000000002667f44a6a44e4bdddcf80e724512ad3426b17d00000000000000000000000000000000000000000000000029a2241af62c0000000000000000000000000000000000000000000000000000000000000000006000000000000000000000000000000000000000000000000000000000000000201e3ae70bf675b2ba6dddee30004149f61228f0e01d76125ab9d439e1bb41d015",
        "nonce": "0xb",
        "chainId": "0xaa36a7"
      },
      "additionalContracts": [],
      "isFixedGasLimit": false
    }
  ],
  "receipts": [
    {
      "status": "0x1",
      "cumulativeGasUsed": "0x12e7e4c",
      "logs": [
        {
          "address": "0x779877a7b0d9e8603169ddbd7836e478b4624789",
          "topics": [
            "0xddf252ad1be2c89b69c2b068fc378daa952ba7f163c4a11628f55a4df523b3ef",
            "0x00000000000000000000000096fcc8e900e7909e0df73ae8239c3a8c7f601562",
            "0x00000000000000000000000002667f44a6a44e4bdddcf80e724512ad3426b17d"
          ],
          "data": "0x00000000000000000000000000000000000000000000000029a2241af62c0000",
          "blockHash": "0x9d837a0abf45e88934f0c3ad9dbb3f7c7e92b05799bcb8902260881703953992",
          "blockNumber": "0x7a7931",
          "blockTimestamp": "0x67eb9cdc",
          "transactionHash": "0x8a6a7a73cbf63536efb246b07f56c4d8b92b90d809b270790e2e7ebd2dd10992",
          "transactionIndex": "0xa2",
          "logIndex": "0x124",
          "removed": false
        },
        {
          "address": "0x779877a7b0d9e8603169ddbd7836e478b4624789",
          "topics": [
            "0xe19260aff97b920c7df27010903aeb9c8d2be5d310a2c67824cf3f15396e4c16",
            "0x00000000000000000000000096fcc8e900e7909e0df73ae8239c3a8c7f601562",
            "0x00000000000000000000000002667f44a6a44e4bdddcf80e724512ad3426b17d"
          ],
          "data": "0x00000000000000000000000000000000000000000000000029a2241af62c0000000000000000000000000000000000000000000000000000000000000000004000000000000000000000000000000000000000000000000000000000000000201e3ae70bf675b2ba6dddee30004149f61228f0e01d76125ab9d439e1bb41d015",
          "blockHash": "0x9d837a0abf45e88934f0c3ad9dbb3f7c7e92b05799bcb8902260881703953992",
          "blockNumber": "0x7a7931",
          "blockTimestamp": "0x67eb9cdc",
          "transactionHash": "0x8a6a7a73cbf63536efb246b07f56c4d8b92b90d809b270790e2e7ebd2dd10992",
          "transactionIndex": "0xa2",
          "logIndex": "0x125",
          "removed": false
        }
      ],
      "logsBloom": "0x00000004000000000000000000000000000000000000000000000000020000000000000000000000000000000000000000000000000000000000000000000000000000000000000000000008000000000000000000000000040020000000000000000000000000000000000000000000000000000000020000000012000000000000000000000000000000000000804000000020000000000000000000000000000000000000040000000000000000000000008000000000000000000000000000000002000000000000000000000000000000000000000100000000000000000000000000000000000000000000000000000000000000000000000000000000",
      "type": "0x2",
      "transactionHash": "0x8a6a7a73cbf63536efb246b07f56c4d8b92b90d809b270790e2e7ebd2dd10992",
      "transactionIndex": "0xa2",
      "blockHash": "0x9d837a0abf45e88934f0c3ad9dbb3f7c7e92b05799bcb8902260881703953992",
      "blockNumber": "0x7a7931",
      "gasUsed": "0xe3ad",
      "effectiveGasPrice": "0x118171492",
      "from": "0x96fcc8e900e7909e0df73ae8239c3a8c7f601562",
      "to": "0x779877a7b0d9e8603169ddbd7836e478b4624789",
      "contractAddress": null
    }
  ],
  "libraries": [],
  "pending": [],
  "returns": {},
  "timestamp": 1743494365,
  "chain": 11155111,
  "commit": "71b375b"
}